:020000040800F2
:10000000800500209D0100085B1E0008CB19000838
:10001000591E000815080008092200080000000009
:100020000000000000000000000000005F1E00084B
:1000300017080008000000005D1E0008851E00086B
:10004000B7010008B7010008B7010008B7010008B0
:10005000B7010008B7010008B7010008B7010008A0
:10006000B7010008B7010008B7010008B701000890
:10007000B7010008B7010008B7010008B701000880
:10008000B7010008B7010008B7010008B701000870
:10009000B7010008B7010008B7010008B701000860
:1000A000B7010008B7010008B7010008B701000850
:1000B000B7010008B7010008B7010008B701000840
:1000C000B7010008B7010008B7010008B701000830
:1000D000B7010008B7010008B7010008FD210008BA
:1000E000B7010008B7010008B7010008B701000810
:1000F000B7010008B7010008B7010008B701000800
:10010000B7010008B7010008B7010008B7010008EF
:10011000B7010008B7010008B7010008B7010008DF
:10012000B7010008B7010008B7010008B7010008CF
:10013000B7010008B7010008B7010008B7010008BF
:10014000B7010008B7010008B7010008B7010008AF
:10015000B7010008B7010008B7010008B70100089F
:10016000B7010008B7010008B7010008B70100088F
:10017000B7010008B7010008B7010008000000003F
:10018000B7010008B7010008DFF80CD000F080F9D3
:1001900000480047E92600088005002006488047FF
:1001A00006480047FEE7FEE7FEE7FEE7FEE7FEE75C
:1001B000FEE7FEE7FEE7FEE7191F000889010008D9
:1001C0002DE9F05F0546002092469B46884606468C
:1001D000814640241BE0284641464746224600F01F
:1001E00004F953465A46C01A914110D31146184695
:1001F000224600F0EBF82D1A67EB01084F46224625
:100200000120002100F0E2F817EB00094E41201E0A
:10021000A4F10104DFDC484631462A464346BDE8E6
:10022000F09FD2B201E000F8012B491EFBD27047CB
:100230000022F6E710B513460A4604461946FFF7B2
:10024000F0FF204610BD00000FB400B58DB010A91E
:1002500009900B9000914FF0FF300A9000200C9015
:1002600005480690054807906A4609A80F9900F0CE
:10027000E1F80DB05DF814FB510400086F040008AC
:100280002DE9FF5F1D464FF0FF3BD5E90146914642
:100290005F464FF00008A9697F1C01988847296ACA
:1002A000824688470028F6D1BAF1FF3F0CD024F4EB
:1002B000C064002E19DD600614D5BAF12B0F09D0E9
:1002C000BAF12D0F0ED103E0584604B0BDE8F09FFF
:1002D00044F48064A9697F1C01988847761E824691
:1002E000002E02DDBAF1300F03D0B9F1000F26D095
:1002F00032E0A969761E44F400747F1C0198884797
:100300008246002E05DDBAF1780F06D0BAF1580FFB
:1003100003D0B9F1000F10D01EE0B9F1000F02D0E8
:10032000B9F1100F18D1A969761E24F400747F1C4E
:10033000019888478246102002E0082000E00A2049
:10034000814609E008FB0908A969761E44F4007497
:100350007F1C019888478246002E05DD494650469D
:1003600000F053F80028EDDAE96901988847A00504
:1003700002D46FF00100A8E7E00725D1600613D58D
:10038000600502D5C8F1000000E0404629680A1D5A
:100390002A600968220501D5087015E0220701D5F9
:1003A000088011E008600FE02868011D29600068DE
:1003B000210502D580F8008006E0210702D5A0F8CB
:1003C000008001E0C0F8008038467EE7202A04DB88
:1003D000203A00FA02F1002070479140C2F1200358
:1003E00020FA03F3194390407047202A04DB203A97
:1003F00021FA02F00021704721FA02F3D040C2F145
:10040000200291400843194670473A2800D23038FC
:1004100020F02002412A01D3A2F13700884201D303
:100420004FF0FF30704700000268114413780160FC
:1004300018467047D1600449516104491162002196
:100440001161114600F03CB829040008B504000809
:10045000426842B1016811F8013B23B1521EC0E964
:100460000012184670470121C160881E704742681B
:100470005AB1C368016843B983688B4205D0491EED
:10048000521CC0E90012002070474FF0FF30704747
:10049000064C074D06E0E06840F0010394E80700D1
:1004A00098471034AC42F6D3FFF772FE1C280008C0
:1004B0003C280008C0B24FF4F05100F097B900009A
:1004C0002DE9F34F8BB04FF0000801F10C000C4602
:1004D0004FF0010B46460DF1080A019062690121B7
:1004E00001989047051E2DD0252D2CD0216A8847D4
:1004F000C0B16269012101989047216A88470028AC
:10050000F7D1411E62690198904700E0761CA1690D
:100510000B988847216A88470028F7D1E1690B9832
:100520008847DBE7A1690B9888470746A84201D1B5
:10053000761CD3E7E1690B9888477F1C02D1B8F19C
:10054000000F6FD046E1002762693D4639460198A9
:1005500090472A2804D1626901210198904701251A
:10056000DFF884926269012101989047A0F130017F
:100570000A290AD24F45E5DC07EB870100EB41076A
:10058000303FDFD445F01005ECE7E90601D46FF009
:1005900000476C280AD04C2814D0682815D06A2847
:1005A0000DD074281CD07A281AD01DE06269012170
:1005B000019890476C2802D045F0040514E045F0FE
:1005C00002050DE045F020050AE06269012101986D
:1005D0009047682802D045F0080505E045F400651D
:1005E0006269012101989047C4E9015765283DD00F
:1005F00019DC58287AD00CDC452837D004DC2528B3
:1006000026D0412831D131E046282FD047282CD19F
:100610002CE05B2877D0612828D063287CD0642820
:1006200023D15AE0D0E06F2848D008DC66281DD0DE
:1006300067281BD0692821D06E2816D127E07028A2
:1006400045D0732868D0752847D078280DD14DE063
:10065000A1690B988847054625283FF469AFE169F1
:100660000B9888476D1C3FF46AAFB3E023466A4697
:100670006FF001000B99AFF300809EE045F0400061
:100680006060A80723464FF0000236D43EE0E8073A
:100690007FF447AF2068011D21600068290501D55E
:1006A00006701BE7290701D5068017E7A90703D5C0
:1006B000F117C0E9006111E706600FE745F040005F
:1006C0006060A80723464FF0080216D41EE040F6EB
:1006D0000E0125EA0100606016E045F04000606010
:1006E000A80723464FF00A0207D40FE045F0400068
:1006F0006060A80708D5234610226FF001000B990F
:10070000AFF3008059E007E0234610226FF00100AC
:100710000B99FFF7B5FD50E04FF000094F464B46EF
:10072000632802D05B2806D040E0E80601D401200F
:10073000A06001273AE062690121019890475E2894
:1007400005D14FF001096269494601989047216936
:1007500039B900210A46534643F82120491C08298B
:10076000FADBB0B3216969B9C11700EBD16253114B
:100770000AEB830122F01F02821A01200B689040CD
:1007800003430B6062690121019890475D28E8D11D
:10079000B9F1000F09D00020514651F82020D24372
:1007A00041F82020401C0828F7DB02AB22460097C6
:1007B0006FF001000B99AFF3008000280CDA401CA9
:1007C00008D1BBF1000F05D04FF0FF300DB0BDE8F0
:1007D000F08FFFE74046F9E7E90701D108F101088A
:1007E00006444FF0000B79E6CCCCCC0C7F2801D925
:1007F000002208E0064A02EB5002C007127800D13E
:10080000120902F00F0201209040084070470000DA
:10081000DC270008FEE7704772B6FEE72DE9F041DD
:100820000446876D00F066F9064694F83500002509
:10083000022806D08020606584F834500120BDE88D
:10084000F0812068016821F016010160206841698B
:1008500021F080014161206C08B9A06C20B12068B2
:10086000016821F0080101602068016821F00101A0
:1008700001600CE000F03EF9801B052807D920201C
:100880006065032084F8350084F83450D7E7206889
:100890000068C007EED194F85C103F208840B86033
:1008A000012084F8350084F834500020C7E790F820
:1008B0003510022903D080214165012070470521B0
:1008C00080F835100068016821F001010160002006
:1008D0007047000070B5044600F00CF90546601C36
:1008E00002D004480078044400F004F9401BA04200
:1008F000FAD370BD000000202DE9F84FDFF8BCA14D
:100900000022012503264FF00F090AF1040BAAF17A
:10091000040E00BF0B6805FA02F42340A34270D115
:100920000F7907F00307012F01D0022F16D1876836
:100930004FEA420806FA08FC27EA0C07D1F80CC077
:100940000CFA08FC4CEA070CC0F808C04768A7433B
:100950000C79C4F3001494403C4344600C79E443A4
:10096000A4070AD0C4684FEA420C06FA0CF7BC434D
:100970008F6807FA0CF72743C7600C7904F003046B
:10098000022C12D1D40800EB840CDCF8204057076D
:10099000FF0E09FA07F824EA0804D1F8108008FAD3
:1009A00007F848EA0408CCF8208004684FEA420CB3
:1009B00006FA0CF7BC430F7907F0030707FA0CF7A8
:1009C000274307604C6814F4403F70D03C4C2768C4
:1009D00047F480472760246822F0030704F480442A
:1009E0000094384C07EB040CDCF8084897074FEAF2
:1009F000177809FA08F7BC43334FB84202D10027F1
:100A000024E054E0314FB84201D101271EE0304FBD
:100A1000B84201D1022719E02E4FB84201D1032775
:100A200014E02D4FB84201D104270FE02B4FB842FC
:100A300001D105270AE02A4FB84201D1062705E077
:100A4000284FB84201D1072700E0082707FA08F726
:100A50002743CCF80878DAF800405746D1F804C0AC
:100A60009C435FEACC2C00D51C433C60DBF8004083
:100A70005F46D1F804C09C435FEA8C2C00D51C4330
:100A80003C60DEF800407746D1F804C09C435FEA42
:100A90008C3C00D51C433C60084F083F3C68D1F8B3
:100AA00004C09C435FEACC3C00D51C433C60521C14
:100AB000102AFFF42FAFBDE8F88F0000083C01407A
:100AC000443802400030014000000240000402406F
:100AD00000080240000C02400010024000140240D6
:100AE00000180240001C02400AB1816170470904ED
:100AF000FBE700000148806870470000000000200C
:100B000070B5040025D094F83D00002520B984F884
:100B10003C50204600F050F9242084F83D00206825
:100B2000016821F0010101602068016841F4004181
:100B300001602068016821F40041016000F0A4FA1E
:100B40004D4A6168914201D84C4900E04C498842C5
:100B500001D2012070BD4B492368B0FBF1F15E6802
:100B600026F03F060E435E606368934206D94FF459
:100B7000967359434FF47A73B1FBF3F12368491C20
:100B80001E6A26F03F06314319626168914210D80F
:100B90004900401EB0FBF1F2521CC2F30B02042AC2
:100BA00001D2042022E0B0FBF1F0401CC0F30B00A6
:100BB0001CE0A268F2B301EBC10303EB0116431E74
:100BC000B3FBF6F35B1C43F480431B0549D092B39F
:100BD00001EBC10202EB0111401EB0FBF1F0401C21
:100BE000C0F30B0040F4804040F400402168CA6923
:100BF0004CF6FF739A431043C861D4E907100143D0
:100C00002068026822F0C00211430160D4E90301A8
:100C100001432068826848F2FF339A4311438160A0
:100C2000D4E9050108432168CA6822F0FF02104395
:100C3000C86001E00EE016E02068016841F00101A3
:100C400001602564202084F83D00256384F83E502F
:100C5000002070BD01EB4106431EB3FBF6F35B1CA5
:100C6000B3E70120C2E701EB4101401EB0FBF1F008
:100C7000401CC0F30B00B7E7A086010080841E0073
:100C800000093D0040420F002DE9FF4F83B09A4616
:100C9000DDE9119793460446DDF84080FFF72AFF0F
:100CA000054694F83D0020287FD1192301224049B0
:100CB0002046009500F022FF002876D194F83C00F1
:100CC000012872D0012084F83C0020680168C9071F
:100CD00003D1016841F0010101602068016821F43D
:100CE00000610160212084F83D00402084F83E002E
:100CF00000262664C4F82480A4F82A90608D2085FC
:100D00002C48E062CDE9007553465A4620460499C6
:100D100000F074FE70B930E02A463946204600F0F3
:100D200093FF58B1206C042804D12068016841F475
:100D300000710160012007B0BDE8F08F606A216892
:100D400000780861606A401C6062218D491E89B28A
:100D50002185628D521E628522685369DB435B07E1
:100D60000BD469B100781061606A401C6062208D0C
:100D7000401E2085608D401E6085208D0028CBD1CF
:100D80002A463946204600F08DFE0028CAD154F884
:100D90003D0B016841F400710160202004F81E0938
:100DA000E67766770020C6E7FFE70220C3E700008A
:100DB000020010000000FFFF10B586B004461421A9
:100DC0006846FFF735FA13492068884220D1124857
:100DD0000021026842F002020260006800F0020096
:100DE0000590C02000901220CDE90101032003905E
:100DF0000420049069460948FFF77EFD064810303C
:100E0000016841F400110160006800F400100590D1
:100E100006B010BD005400403038024000040240CB
:100E20000248816802781144816070470000002008
:100E30000B4810B5016841F400710160016841F48C
:100E400080610160016841F480710160032000F05D
:100E50006FF80F2000F006F800F024F8002010BD15
:100E6000003C024070B50D4D04464FF47A7128786D
:100E7000B1FBF0F00A490968B1FBF0F000F00CFB9F
:100E800048B9102C07D200222146501E00F030F83D
:100E900000206C6070BD012070BD000000000020CB
:100EA0000C0000200A4808B5016841F48041016047
:100EB000006800F4804000900548001F016841F080
:100EC00080510160006800F08050009008BD000073
:100ED00044380240002809DB00F01F020121914044
:100EE0004009800000F1E020C0F8001170470000C8
:100EF000F0B40E4B1B680C46C3F30223C3F1070585
:100F0000042D00D90425191D072901D2002300E072
:100F1000DB1E012606FA05F1491E214099409E403C
:100F2000761E16403143F0BC01F080B90CED00E0B4
:100F3000064900F0070208684FF6FF03184040EA30
:100F40000220034A10430860704700000CED00E0E7
:100F50000000FA052DE9F0470E46050065D0DFF8E0
:100F60001481D8F80000F7B200F00700B04207D2B1
:100F700088F80070D8F8000000F00700B04254D1A3
:100F800028683D4C810712D5400703D5206840F4FE
:100F9000E05020602878000703D5206840F46040C6
:100FA00020602068A96820F0F000084320602878BD
:100FB000C0072DD0304968680839012812D00228AE
:100FC00013D0032811D00968890700292DDA216878
:100FD00021F0030101432160FFF78CFD814641F2BE
:100FE000883A0EE009688903EFE709688901ECE7B0
:100FF000FFF780FDA0EB0901514502D90320BDE8B0
:10100000F0872068696800F00C00B0EB810FEFD129
:10101000D8F80010404601F00701B14207D9077027
:10102000006800F00700B04201D00120E7E728780F
:10103000400705D52068E96820F4E05008432060A7
:101040002878000706D52068296920F4604040EA26
:10105000C100206000F038F82168084AC1F303118C
:10106000515CC8400649086006480068FFF7FAFE70
:101070000020C4E7003C024008380240C4270008B2
:101080000C0000200400002004480549006809689D
:10109000044AC1F38221515CC84070470C00002013
:1010A00008380240D4270008044805490068096848
:1010B000044AC1F34231515CC84070470C00002023
:1010C00008380240D4270008154810B5006810F011
:1010D0000C02144813D01449042A0FD0082A0ED148
:1010E0000F4C241F2268236802F03F025B0207D5E1
:1010F0002068C0F38810A0FB010106E0084610BD7F
:101100002168C1F38811A1FB00010023FFF758F803
:101110002168C1F30141491C4900B0FBF1F010BD49
:10112000083802400024F40040787D012DE9F84F92
:1011300004006ED02078DFF84C93C007A9F10405B5
:101140004AD009F104000168C1F38101012908D0E6
:101150000068C0F3810002280AD1D9F800004002DB
:1011600006D52868800337D560680028E1D033E0D1
:101170006068B0F5803F10D0B0F5A02F286810D07F
:1011800020F480302860286820F48020286060687F
:10119000A8B1FFF7AFFC06460DE0286840F48030A8
:1011A000F4E740F480202860F7E700BFFFF7A2FCD7
:1011B000801B642873D828688003F7D50CE0FFF7FC
:1011C00099FC064605E000BFFFF794FC801B6428ED
:1011D000F0D828688003F7D42078DFF8AC82800745
:1011E0004FF0000A3ED5A748001D016811F00C0F12
:1011F00008D00068C0F3810002280BD1D9F80000A4
:10120000400207D42868800716D5E068012800D17D
:1012100012E033E1E068B8B10120C8F80000FFF740
:1012200069FC064605E000BFFFF764FC801B02284E
:10123000C0D828688007F7D52868216920F0F80011
:1012400040EAC10028600DE0C8F800A0FFF752FC9A
:10125000064604E0FFF74EFC801B02281FD82868D2
:101260008007F7D42078000722D5864F8748616928
:10127000703771B101210160FFF73CFC064604E0C4
:10128000FFF738FC801B022809D838688007F7D59B
:101290000EE0C0F800A0FFF72DFC064605E082E056
:1012A000FFF728FC801B02287DD838688007F7D418
:1012B0002078400768D5DFF8CCB100270BF13C0B54
:1012C000DBF80000C0000BD4DBF8001041F08051C7
:1012D000CBF80010DBF80000012700F080500090F0
:1012E0006B4E3068C00510D4306840F480703060B8
:1012F000FFF700FC009005E0FFF7FCFB0099401AA7
:10130000022850D83068C005F6D55E4EA0686C360D
:1013100001280FD00528306810D020F0010030607F
:10132000306820F004003060A068B8B1FFF7E2FB3D
:1013300000900FE0306840F00100F4E740F0040056
:101340003060F7E7FFF7D6FB0099411A41F2883089
:10135000814266D830688007F4D50EE0FFF7CAFBFB
:10136000009007E0FFF7C6FB0099411A41F2883070
:10137000814256D830688007F4D42FB1DBF80010D2
:1013800021F08051CBF80010A069C8B33D49091D78
:101390000968C1F3810102294AD00228504607D0CA
:1013A000C8F8600000E03CE0FFF7A4FB04463BE027
:1013B0004746C8F86000FFF79DFB064605E000BF02
:1013C000FFF798FB801B02282BD828688001F7D4F0
:1013D000D4E907010843A16A2E4A490802EB0141FA
:1013E000626A41EA8211084394F82C1040EA0161D4
:1013F000C9F8001001203866FFF77CFB044606E0C0
:101400003EE000BFFFF776FB001B022809D82868E2
:101410008001F7D534E000BFFFF76CFB001B02280A
:1014200002D90320BDE8F88F28688001F4D427E0B2
:101430000128F7D0D9F80000E26900F48001914258
:101440001CD1226A00F03F01914217D147F6C071CA
:10145000626A0140B1EB821F10D1A26A4FF0FF33E4
:1014600000F4403103EB5202B1EB024F06D194F885
:101470002C1000F07060B0EB016F01D00120D1E7BB
:101480000020CFE70438024000004742800E474268
:10149000007000400000FFFF10B5401EB0F1807FDB
:1014A00001D3012010BD4FF0E02460610F216017CF
:1014B00000F0BCFE0020A06107202061002010BDCC
:1014C00018B5034690F84200202801D0022018BD2C
:1014D00061B15AB10120186300205863184600F02A
:1014E00039FE0028F3D1196B012901D0012018BD64
:1014F00019680A684968009119680C3151E8002F91
:1015000042F0100241E80024002CF5D118BD7047CC
:1015100070470000F8B5016804460868CA684B695E
:1015200010F00F0F4FF0000559D003F0010602F440
:101530009077374365D0C10705D0D10503D5616CDD
:1015400041F001016164410705D5D90703D0616C01
:1015500041F002016164810705D5D90703D0616CB0
:1015600041F004016164010707D502F02001314315
:1015700003D0616C41F008016164616C00293AD0CC
:10158000800604D5900602D5204600F0FBFC2068BA
:101590004069616CC0F38010090700D460B3204635
:1015A00000F0C9FC20684069400621D5206814304D
:1015B00050E8001F21F0400140E80012002AF5D158
:1015C000E06BA8B172490165E06BFFF770F9002884
:1015D00011D0E06B016D01B0BDE8F0400847830613
:1015E0000FD593060DD52046BDE8F84000F0CABCE3
:1015F0002046FFF78DFFF8BD2046FFF789FF6564A1
:10160000F8BD266B2023012E7ED1C6067CD5D606DA
:101610007AD508684868009048694FF0020640068D
:101620004DD5E26B106840684FF480770004000CE1
:101630003AD0A18D814237D9E085D069B8422DD00A
:1016400020680C3050E8001F21F4807140E800123F
:10165000002AF5D12068143050E8001F21F0010164
:1016600040E80012002AF5D12068143050E8001F2D
:1016700021F0400140E80012002AF5D184F8423000
:10168000256320680C3050E8001F21F0100140E86D
:101690000012002AF5D1E06BFFF7C0F86663A08D59
:1016A000E18D401A81B206E0A18D8142A8D1D069B6
:1016B000B842A5D166632046FFF729FFF8BDA08D8B
:1016C000E18D401A81B2E08D0028F7D00029F5D0D5
:1016D00020680C3050E8002F22F4907240E8002778
:1016E000002FF5D12068143050E8002F22F00102BD
:1016F00040E80027002FF5D184F8423025632068A8
:101700000C3050E8002F00E006E022F0100240E824
:101710000023002BF3D1CDE705062BD5150629D5DF
:1017200094F841002128C9D1A068B0F5805F01D1AB
:101730002069B0B1206A411C2162216800784860AC
:10174000E08C401E0004000CE084B7D12068C16822
:1017500021F08001C1602068C16841F04001C16092
:10176000F8BD206A0088C0F308004860206A801C29
:101770002062E5E74006F3D55006F1D5CA68204659
:1017800022F04002CA6084F8413000F01DF9F8BD33
:10179000291F000870B5040004D094F8410000250A
:1017A00010B106E0012070BD84F84050204600F0E2
:1017B00023F8242084F841002068C16821F40051F6
:1017C000C160204600F040FC2068016921F490418E
:1017D00001612068416921F02A0141612068C168E6
:1017E00041F40051C1606564202084F8410084F810
:1017F00042006563002070BD70B586B004461421B8
:101800006846FEF715FD284E22680021274802236E
:1018100003240725B2421DD1244A1432166846F02B
:1018200010061660126802F010020592026842F07B
:1018300001020260006802AA00F00100059082E83F
:1018400032006002CDE9000369461948FFF754F8F9
:1018500006B070BD174EB242FAD1144A1032166863
:1018600046F480261660126802F48022059202680F
:1018700042F002020260006802AA00F00200059035
:1018800082E832004FF44060CDE9000369460A481F
:10189000FFF732F8002211462720FFF729FB272007
:1018A000FFF718FBD4E70000001001403038024079
:1018B00000000240004800400004024090F842301E
:1018C000202B01D00220704721B11AB100230363FD
:1018D00000F040BC0120704710B5006809498842FB
:1018E0000ED1094C207800F055FF0122214607480F
:1018F000FFF7E4FF2178BDE8104005A000F086BCAA
:1019000010BD0000004800401C000020F80000202E
:10191000526563656976656420627974653A20254D
:10192000634D4D0D0A0000002DE9F843044690F880
:101930004100984616460D46202802D00220BDE8F8
:10194000F88385B17EB100206064212084F84100D5
:10195000FFF7D0F8A6848146E684A0682027B0F57A
:10196000805F02D003E00120E9E7206910B12E4634
:1019700000250EE000260CE08021204600F005FC4A
:10198000A8B9C6B116F8010B21684860E08C401E6A
:10199000E084E08C4B464FF00002CDF80080002838
:1019A000EAD14FF04001204600F0EFFB40B184F84F
:1019B00041700320C3E735F8020BC0F30800E3E7EA
:1019C00084F841700020BAE77047FEE701684A6971
:1019D000D24352050FD46FF480624A61002140F86F
:1019E000301F202242738173026942F004020261B7
:1019F0000173012070470020704700002DE9F84373
:101A0000044600680D46DDE90897016898461646C9
:101A100041F4807101604B4600224FF001112046D5
:101A2000009700F06BF848B120680068C00502D547
:101A30004FF4007020640320BDE8F883216805F0AE
:101A4000FE0008613B464A461549204600F09EF8D4
:101A500088B920684169806900903A464946204625
:101A600000F0F2F848B1206C042804D12068016825
:101A700041F4007101600120DEE7F5B2B8F1010F19
:101A800009D02168300A08613A464946204600F0EC
:101A9000DBF80028E7D1206805610020CCE70000D2
:101AA0000200010070B516460D4604461EE02046B1
:101AB000FFF78CFF08B1012070BD681C16D0FFF73E
:101AC00019F8801BA84200D885B920684069C04336
:101AD00040070BD5002044F8300F20216173A0731C
:101AE000216941F0200121612073E4E72068406909
:101AF000C0434007DBD4002070BD00002DE9F04753
:101B0000984617460D460446C1F30746DDF8209077
:101B10002AE000BFB8F1FF3F26D0FEF7EBFFA0EBB5
:101B20000901414502D8B8F1000F1DD12068012EEE
:101B300016D0806925EA00000004000C12D00020B5
:101B4000B84211D1002044F8300F20216173A073F6
:101B5000216941F02001216120730120BDE8F08757
:101B60004069E7E70120EBE72068012E0AD0806991
:101B700025EA00000004000C06D00020B842C9D0BD
:101B80000020EBE74069F3E70120F7E72DE9F04794
:101B9000984616460D4604464FF000094FF0200ABD
:101BA000C1F3074723E020684069C043400515D4CE
:101BB0002068016841F40071016021686FF4806061
:101BC0004861C4F8309084F83DA084F83E90216CC0
:101BD00041F00401216484F83C9021E0701C06D09F
:101BE000FEF788FFA0EB0800B04203D816B1012F22
:101BF0001FD021E02068012F15D0806925EA000060
:101C00000004000C18D000BF44F8309F84F80DA0E9
:101C100084F80E90216941F02001216184F80C9034
:101C20000120BDE8F087406925EA00000004000CAF
:101C3000EAD12068406901E02068806925EA000057
:101C40000004000CAFD1ECE770B516460D46044613
:101C50001EE02046FFF7BAFE08B1012070BD681CE7
:101C600016D0FEF747FF801BA84200D885B9206830
:101C70004069C04300060BD5002044F8300F2021F6
:101C80006173A073216941F0200121612073E4E7B1
:101C900020684069C0430006DBD4002070BD10B549
:101CA00080216B2000F0DCF83220FEF713FE0921C2
:101CB0006B2000F0D5F845216A2000F0D1F8002112
:101CC000192000F0CDF803211A2000F0C9F80821EE
:101CD0001B2000F0C5F808211C2000F0C1F8782175
:101CE000BDE81040232000F0BBB8000030B587B03D
:101CF00014216846FEF79CFA28480024016841F048
:101D000010010160016801F010010591016841F0C6
:101D100004010160016801F004010591016841F0CE
:101D200020010160016801F020010591016841F086
:101D300080010160016801F080010591016841F0B6
:101D400002010160016801F002010591016841F0A2
:101D5000010101600068124D00F0010001220590B0
:101D600051022846FEF7C0FE002229152846FEF73C
:101D7000BBFE1020CDE9000469460A480294FEF734
:101D8000BBFD4FF4C06000900120CDE9010469461D
:101D900028460394FEF7B0FD07B030BD303802404E
:101DA00000140240001002400D4810B50B490160BC
:101DB0000C49416000214FF480428160C0E9031268
:101DC00041618161C1610162FEF79AFE002803D082
:101DD000BDE81040FEF720BD10BD000000540040DB
:101DE0005C000020801A06000C4810B50A4901600A
:101DF0004FF4E1314160002181600C22C160C0E9F3
:101E000004128161C161FFF7C5FC002803D0BDE861
:101E10001040FEF701BD10BD00100140B0000020D1
:101E20000C4810B50A4901604FF4E13141600021CE
:101E300081600C22C160C0E904128161C161FFF7B9
:101E4000A9FC002803D0BDE81040FEF7E5BC10BD9A
:101E500000480040F8000020FEE7FEE770477047AA
:101E600003B583B06423012204A98DE80E00134654
:101E70000246D0210248FEF707FF05B000BD000072
:101E80005C000020FEF7CCBF30B593B0302168462F
:101E9000FEF7CEF914210CA8FEF7CAF91C4800245D
:101EA000016841F080510160006800F0805011909D
:101EB0001848016841F4804101600068022500F47F
:101EC0008040119001200390102004900095069509
:101ED0000820CDE907404820CDE9090504200B90F2
:101EE0006846FFF723F908B172B6FEE70F20CDE987
:101EF0000C054FF48050CDE90E4002210CA810943F
:101F0000FFF728F8002801D072B6FEE713B030BD05
:101F100040380240007000400248016841F47001FE
:101F20000160704788ED00E010B5806B0021C1852D
:101F3000FFF7EEFA10BD01680C3151E8002F22F4D2
:101F4000907241E80023002BF5D10168143151E86B
:101F5000002F22F0010241E80023002BF5D1016B94
:101F6000012909D101680C3151E8002F22F010023B
:101F700041E80023002BF5D1202180F842100021F8
:101F80000163704708B590F84210222901D0022061
:101F900008BD82684FF480539A4201D1016921B192
:101FA000816A9A421BD04AB10AE00268816A52688B
:101FB000C2F308020A80816A891C08E0026972B1D2
:101FC0000268526802F07F020A70816A491C8162CD
:101FD000C18D491E0904090CC18503D01BE00268AC
:101FE0005268F1E70168CA6822F02002CA600168FD
:101FF000CA6822F48072CA6001684A6922F001024C
:102000004A61202180F8421000214163026B012ABD
:1020100003D0FFF761FC002008BD016301680C31AB
:1020200051E8002F22F0100241E80023002BF5D1E7
:1020300001680A68D20602D50A6849680091818D54
:10204000FFF765FAE7E7000070B50446006801692C
:10205000E26821F44051114301612169A068E269FD
:1020600008436169114308432168CA6849F20C6357
:102070009A430243CA6020684169A26921F4407111
:102080001143416131492068884202D03049884279
:1020900002D1FFF709F801E0FEF7F6FFE26900233D
:1020A000192164253226B2F5004F626828D0A0FBC2
:1020B0000101930F9200FEF783F80146B0FBF5F0A3
:1020C0006FF01802504301EB800006EB0010B0FBEC
:1020D000F5F000F0F002B1FBF5F002EB0012B1FBFD
:1020E000F5F06FF01803584301EB800006EB001089
:1020F000B0FBF5F000F00F0021681044886070BD5F
:10210000A0FB010192185B41FEF75AF80146B0FBB3
:10211000F5F00201B1FBF5F06FF01803584301EB45
:10212000800006EBC000B0FBF5F000F0F80002EB19
:102130004002B1FBF5F0584301EB800006EBC00014
:10214000B0FBF5F000F00700D6E7000000100140FA
:102150000014014081628285C285002141642221F0
:1021600080F84210016921B10168CA6842F48072A6
:10217000CA6001684A6942F001024A610068C168A8
:1021800041F02001C160002070472DE9F8439846D6
:1021900017460D460446089E24E0701C22D0FEF728
:1021A000A9FCA0EB0800B0421AD8CEB12068C168E3
:1021B000490717D5802D15D0402D13D00168C9438C
:1021C00009070FD401680025406800902046FFF7FA
:1021D000B2FE0820606484F840500120BDE8F88316
:1021E0000320FBE72068006835EA000004D00020E7
:1021F000B842D2D00020F1E70120F9E70148FFF70B
:1022000089B90000F8000020FEE700000FB4054B7C
:1022100010B503A9044A029800F028F810BC5DF834
:1022200014FB0000D1260008180000200907090E41
:10223000002804DB00F1E02080F80014704700F073
:102240000F0000F1E02080F8141D704702E008C87C
:10225000121F08C1002AFAD170477047002001E020
:1022600001C1121F002AFBD1704700002DE9FF4F6A
:102270008DB00F460546002606E025280BD0DDE987
:102280000F1290476D1C761C28780028F5D111B0EC
:102290003046BDE8F08F0024A246A1460122EC4959
:1022A00000E0044315F8013F203B02FA03F0084226
:1022B000F7D128782A2810D06FF02F022878A0F1C3
:1022C0003001092914D80AEB8A0102EB410144F0DC
:1022D000020400EB010A6D1CF0E701CF5FEA000A7F
:1022E00003D544F40054CAF1000A44F002046D1C02
:1022F00028782E2817D115F8010F44F004042A2855
:102300000ED06FF02F022878A0F1300109290AD8E9
:1023100009EB890102EB410100EB01096D1CF2E7B9
:1023200057F8049B6D1C28786C280FD006DC4C28CD
:1023300017D068280DD06A2814D104E0742810D072
:102340007A280FD10DE044F400140AE044F480141C
:1023500001E044F440146978814202D104F580140C
:102360006D1C6D1C2A786E2A1FD00CDC632A31D0BC
:1023700004DC002A8BD0582A11D1A3E0642A68D04B
:10238000692A0CD165E0732A2ED004DC6F2A73D041
:10239000702A04D19BE0752A6FD0782A6ED010463F
:1023A000DDE90F129047761C50E1C4F30250022879
:1023B00006D0032809D0042801CF09D0066045E1E2
:1023C00001CFF117C0E9006140E101CF06803DE196
:1023D00006703BE117F8040B8DF8000000208DF823
:1023E0000100EB46012003E057F804BB4FF0FF303B
:1023F00061074FF0000102D40DE008F101018846A9
:1024000049450FDA8045F8DB1BF808100029F4D1A4
:1024100008E008F1010188468142FADB1BF8081048
:102420000029F6D1DDE90F23AAEB080081462146F9
:1024300000F036F9304400EB080604E0DDE90F1245
:102440001BF8010B9047B8F10108F7D22146484626
:10245000F7E00A21C4F302534FF0000B0891022B5E
:1024600004D001CFC117032B09D00AE0FF1D27F0CC
:102470000707F7E8020108E032E01FE020E000B2C1
:10248000C117042B01D140B2C117031E71F1000323
:1024900007DA4FF0000CD0EB0C006CEB01012D23A0
:1024A00002E0230504D52B238DF82430012303E01B
:1024B000E30701D02023F7E7984658E00A2110E00F
:1024C00010210EE010204FF0000B08900CE01021BE
:1024D0004FF0000B44F004044FF00809089103E0AA
:1024E00008214FF0000B0891C4F30253022B04D0D3
:1024F00001CF0021032B06D006E0FF1D27F00707C0
:10250000F7E8020103E080B2042B00D1C0B24FF023
:10251000000823072BD5702A07D0DDF820C08CF0E7
:10252000100C5CEA0B0C05D00EE040238DF8243033
:10253000012308E050EA010306D030238DF824304F
:102540008DF8252002239846DDF820C08CF0080C79
:102550005CEA0B0C0BD150EA010301D1630706D5ED
:1025600030238DF824304FF00108A9F10109582AD1
:1025700004D038A20B9208AA0A920BE03AA2F9E71B
:102580005B46089AFDF71CFE0B9B9B5C0A9A521E49
:102590000A92137050EA0102F2D10A98ADEB0000E2
:1025A00000F1200B600702D524F4803401E04FF0E5
:1025B0000109D94502DDA9EB0B0000E0002000EB8A
:1025C0000B0141440890AAEB010AE00306D4DDE9BF
:1025D0000F232146504600F063F806444FF00009EF
:1025E00008E009A911F80900DDE90F12904709F187
:1025F0000109761CC145F4DBE0030CD5DDE90F23AE
:102600002146504600F04CF8064404E0DDE90F1284
:1026100030209047761C0899481E08900029F5DC68
:1026200008E00A980A990078491C0A91DDE90F121E
:102630009047761CBBF10001ABF1010BF1DC2146A8
:102640005046DDE90F2300F019F806446D1C1BE627
:102650000928010030313233343536373839616278
:10266000636465660000000030313233343536373C
:102670003839414243444546000000002DE9F0410D
:10268000044600251E461746880404D405E0394652
:102690002020B0476D1C641EF9D52846BDE8F081A6
:1026A0002DE9F041044600251E469046C80301D599
:1026B000302700E02027880404D505E0414638464D
:1026C000B0476D1C641EF9D52846BDE8F0810000B6
:1026D00013B54FF0FF33012269460248FFF724F992
:1026E00000981CBDB000002040220F490F48FEF7A3
:1026F000E7FE0FA0FFF78AFDFEF79AFBFFF7C4FB8A
:10270000FFF7F4FAFFF750FBFFF76EFBFFF788FBCC
:10271000FFF7C5FA4FF47A7413A0FFF777FD204650
:10272000FEF7D8F8F8E700001C000020F8000020B1
:10273000E5BD93E5898DE5B7B2E5BC80E590AFE6F0
:102740008EA5E694B6E4B8ADE696ADEFBC8CE7ADE9
:1027500089E5BE85E695B0E68DAEE58F91E980818D
:10276000EFBC810D0A000000E8B79DE7A6BB0000A2
:1027700008B56A4604A1FDF767FD012802D10449A6
:102780000098486008BD00002564206D6D000000C1
:102790001000002070B5094C002521883F290AD27D
:1027A000074A5054491C89B221800A2804D1555443
:1027B0001046FFF7DDFF258070BD000010000020EF
:1027C000400100200000000000000000010203049E
:1027D000060708090000000001020304DDDDDDDD5D
:1027E000DCBBBBDDDDDDDDDDDDDDDDDD98888888A2
:1027F0008888888877777777778888888555555649
:10280000666666666666666666688888833333329F
:1028100022222222222222222228888D3C280008DD
:10282000000000201C0000004C220008582800086E
:102830001C000020640500005C220008010000006C
:1028400010000000000000000024F4000000000060
:08285000FEFFFFFF0000000085
:040000050800018965
:00000001FF
